{
  "_format": "hh-sol-artifact-1",
  "contractName": "Reputation",
  "sourceName": "contracts/Reputation.sol",
  "abi": [
    {
      "inputs": [],
      "stateMutability": "nonpayable",
      "type": "constructor"
    },
    {
      "anonymous": false,
      "inputs": [
        {
          "indexed": true,
          "internalType": "address",
          "name": "tenant",
          "type": "address"
        },
        {
          "indexed": false,
          "internalType": "uint256",
          "name": "amount",
          "type": "uint256"
        },
        {
          "indexed": false,
          "internalType": "uint256",
          "name": "date",
          "type": "uint256"
        }
      ],
      "name": "PaymentMade",
      "type": "event"
    },
    {
      "anonymous": false,
      "inputs": [
        {
          "indexed": true,
          "internalType": "address",
          "name": "tenant",
          "type": "address"
        },
        {
          "indexed": false,
          "internalType": "uint256",
          "name": "startDate",
          "type": "uint256"
        },
        {
          "indexed": false,
          "internalType": "uint256",
          "name": "endDate",
          "type": "uint256"
        }
      ],
      "name": "RentalCreated",
      "type": "event"
    },
    {
      "anonymous": false,
      "inputs": [
        {
          "indexed": true,
          "internalType": "address",
          "name": "user",
          "type": "address"
        },
        {
          "indexed": false,
          "internalType": "uint256",
          "name": "newReputation",
          "type": "uint256"
        }
      ],
      "name": "ReputationChanged",
      "type": "event"
    },
    {
      "inputs": [
        {
          "internalType": "address",
          "name": "tenant",
          "type": "address"
        },
        {
          "internalType": "uint256",
          "name": "startDate",
          "type": "uint256"
        },
        {
          "internalType": "uint256",
          "name": "endDate",
          "type": "uint256"
        },
        {
          "internalType": "uint256[]",
          "name": "amounts",
          "type": "uint256[]"
        },
        {
          "internalType": "uint256[]",
          "name": "dueDates",
          "type": "uint256[]"
        }
      ],
      "name": "createRental",
      "outputs": [],
      "stateMutability": "nonpayable",
      "type": "function"
    },
    {
      "inputs": [
        {
          "internalType": "address",
          "name": "user",
          "type": "address"
        },
        {
          "internalType": "uint256",
          "name": "amount",
          "type": "uint256"
        }
      ],
      "name": "decreaseReputation",
      "outputs": [],
      "stateMutability": "nonpayable",
      "type": "function"
    },
    {
      "inputs": [],
      "name": "getAllReputations",
      "outputs": [
        {
          "internalType": "address[]",
          "name": "",
          "type": "address[]"
        },
        {
          "internalType": "uint256[]",
          "name": "",
          "type": "uint256[]"
        }
      ],
      "stateMutability": "view",
      "type": "function"
    },
    {
      "inputs": [
        {
          "internalType": "address",
          "name": "tenant",
          "type": "address"
        }
      ],
      "name": "getPaymentPlans",
      "outputs": [
        {
          "components": [
            {
              "internalType": "uint256",
              "name": "amount",
              "type": "uint256"
            },
            {
              "internalType": "uint256",
              "name": "dueDate",
              "type": "uint256"
            },
            {
              "internalType": "bool",
              "name": "paid",
              "type": "bool"
            }
          ],
          "internalType": "struct Reputation.PaymentPlan[]",
          "name": "",
          "type": "tuple[]"
        }
      ],
      "stateMutability": "view",
      "type": "function"
    },
    {
      "inputs": [
        {
          "internalType": "address",
          "name": "tenant",
          "type": "address"
        }
      ],
      "name": "getRental",
      "outputs": [
        {
          "components": [
            {
              "internalType": "address",
              "name": "tenant",
              "type": "address"
            },
            {
              "internalType": "uint256",
              "name": "startDate",
              "type": "uint256"
            },
            {
              "internalType": "uint256",
              "name": "endDate",
              "type": "uint256"
            },
            {
              "components": [
                {
                  "internalType": "uint256",
                  "name": "amount",
                  "type": "uint256"
                },
                {
                  "internalType": "uint256",
                  "name": "dueDate",
                  "type": "uint256"
                },
                {
                  "internalType": "bool",
                  "name": "paid",
                  "type": "bool"
                }
              ],
              "internalType": "struct Reputation.PaymentPlan[]",
              "name": "paymentPlans",
              "type": "tuple[]"
            }
          ],
          "internalType": "struct Reputation.Rental",
          "name": "",
          "type": "tuple"
        }
      ],
      "stateMutability": "view",
      "type": "function"
    },
    {
      "inputs": [
        {
          "internalType": "address",
          "name": "user",
          "type": "address"
        }
      ],
      "name": "getReputation",
      "outputs": [
        {
          "internalType": "uint256",
          "name": "",
          "type": "uint256"
        }
      ],
      "stateMutability": "view",
      "type": "function"
    },
    {
      "inputs": [
        {
          "internalType": "address",
          "name": "user",
          "type": "address"
        },
        {
          "internalType": "uint256",
          "name": "amount",
          "type": "uint256"
        }
      ],
      "name": "increaseReputation",
      "outputs": [],
      "stateMutability": "nonpayable",
      "type": "function"
    },
    {
      "inputs": [
        {
          "internalType": "address",
          "name": "tenant",
          "type": "address"
        },
        {
          "internalType": "uint256",
          "name": "paymentPlanIndex",
          "type": "uint256"
        }
      ],
      "name": "makePayment",
      "outputs": [],
      "stateMutability": "payable",
      "type": "function"
    },
    {
      "inputs": [],
      "name": "owner",
      "outputs": [
        {
          "internalType": "address",
          "name": "",
          "type": "address"
        }
      ],
      "stateMutability": "view",
      "type": "function"
    },
    {
      "inputs": [
        {
          "internalType": "address",
          "name": "",
          "type": "address"
        }
      ],
      "name": "rentals",
      "outputs": [
        {
          "internalType": "address",
          "name": "tenant",
          "type": "address"
        },
        {
          "internalType": "uint256",
          "name": "startDate",
          "type": "uint256"
        },
        {
          "internalType": "uint256",
          "name": "endDate",
          "type": "uint256"
        }
      ],
      "stateMutability": "view",
      "type": "function"
    },
    {
      "inputs": [
        {
          "internalType": "address",
          "name": "",
          "type": "address"
        }
      ],
      "name": "reputation",
      "outputs": [
        {
          "internalType": "uint256",
          "name": "",
          "type": "uint256"
        }
      ],
      "stateMutability": "view",
      "type": "function"
    },
    {
      "inputs": [
        {
          "internalType": "uint256",
          "name": "",
          "type": "uint256"
        }
      ],
      "name": "users",
      "outputs": [
        {
          "internalType": "address",
          "name": "",
          "type": "address"
        }
      ],
      "stateMutability": "view",
      "type": "function"
    }
  ],
  "bytecode": "0x608060405234801561001057600080fd5b5033600360006101000a81548173ffffffffffffffffffffffffffffffffffffffff021916908373ffffffffffffffffffffffffffffffffffffffff160217905550611b80806100616000396000f3fe6080604052600436106100a75760003560e01c8063b4bea13111610064578063b4bea131146101f9578063b9f7945114610236578063ded86d6814610273578063e6a84ccb1461029c578063ed9fa61b146102c5578063f98cf07c146102ee576100a7565b80632f435b3f146100ac578063365b98b2146100d857806367c8833c146101155780636ba85eb4146101525780638da5cb5b146101915780639c89a0e2146101bc575b600080fd5b3480156100b857600080fd5b506100c161030a565b6040516100cf929190611212565b60405180910390f35b3480156100e457600080fd5b506100ff60048036038101906100fa9190611289565b6104ad565b60405161010c91906112c5565b60405180910390f35b34801561012157600080fd5b5061013c6004803603810190610137919061130c565b6104ec565b60405161014991906114a8565b60405180910390f35b34801561015e57600080fd5b506101796004803603810190610174919061130c565b61063d565b604051610188939291906114d9565b60405180910390f35b34801561019d57600080fd5b506101a6610687565b6040516101b391906112c5565b60405180910390f35b3480156101c857600080fd5b506101e360048036038101906101de919061130c565b6106ad565b6040516101f09190611510565b60405180910390f35b34801561020557600080fd5b50610220600480360381019061021b919061130c565b6106f5565b60405161022d919061159a565b60405180910390f35b34801561024257600080fd5b5061025d6004803603810190610258919061130c565b6107c5565b60405161026a9190611510565b60405180910390f35b34801561027f57600080fd5b5061029a600480360381019061029591906115bc565b6107dd565b005b3480156102a857600080fd5b506102c360048036038101906102be9190611755565b61096c565b005b3480156102d157600080fd5b506102ec60048036038101906102e791906115bc565b610d40565b005b610308600480360381019061030391906115bc565b610ea6565b005b606080600060028054905067ffffffffffffffff81111561032e5761032d611612565b5b60405190808252806020026020018201604052801561035c5781602001602082028036833780820191505090505b50905060005b600280549050811015610418576000806002838154811061038657610385611808565b5b9060005260206000200160009054906101000a900473ffffffffffffffffffffffffffffffffffffffff1673ffffffffffffffffffffffffffffffffffffffff1673ffffffffffffffffffffffffffffffffffffffff168152602001908152602001600020548282815181106103ff576103fe611808565b5b6020026020010181815250508080600101915050610362565b506002818180548060200260200160405190810160405280929190818152602001828054801561049d57602002820191906000526020600020905b8160009054906101000a900473ffffffffffffffffffffffffffffffffffffffff1673ffffffffffffffffffffffffffffffffffffffff1681526020019060010190808311610453575b5050505050915092509250509091565b600281815481106104bd57600080fd5b906000526020600020016000915054906101000a900473ffffffffffffffffffffffffffffffffffffffff1681565b6104f461101c565b600160008373ffffffffffffffffffffffffffffffffffffffff1673ffffffffffffffffffffffffffffffffffffffff1681526020019081526020016000206040518060800160405290816000820160009054906101000a900473ffffffffffffffffffffffffffffffffffffffff1673ffffffffffffffffffffffffffffffffffffffff1673ffffffffffffffffffffffffffffffffffffffff168152602001600182015481526020016002820154815260200160038201805480602002602001604051908101604052809291908181526020016000905b8282101561062e578382906000526020600020906003020160405180606001604052908160008201548152602001600182015481526020016002820160009054906101000a900460ff161515151581525050815260200190600101906105cd565b50505050815250509050919050565b60016020528060005260406000206000915090508060000160009054906101000a900473ffffffffffffffffffffffffffffffffffffffff16908060010154908060020154905083565b600360009054906101000a900473ffffffffffffffffffffffffffffffffffffffff1681565b60008060008373ffffffffffffffffffffffffffffffffffffffff1673ffffffffffffffffffffffffffffffffffffffff168152602001908152602001600020549050919050565b6060600160008373ffffffffffffffffffffffffffffffffffffffff1673ffffffffffffffffffffffffffffffffffffffff168152602001908152602001600020600301805480602002602001604051908101604052809291908181526020016000905b828210156107ba578382906000526020600020906003020160405180606001604052908160008201548152602001600182015481526020016002820160009054906101000a900460ff16151515158152505081526020019060010190610759565b505050509050919050565b60006020528060005260406000206000915090505481565b60008060008473ffffffffffffffffffffffffffffffffffffffff1673ffffffffffffffffffffffffffffffffffffffff1681526020019081526020016000205403610887576002829080600181540180825580915050600190039060005260206000200160009091909190916101000a81548173ffffffffffffffffffffffffffffffffffffffff021916908373ffffffffffffffffffffffffffffffffffffffff1602179055505b806000808473ffffffffffffffffffffffffffffffffffffffff1673ffffffffffffffffffffffffffffffffffffffff16815260200190815260200160002060008282546108d59190611866565b925050819055508173ffffffffffffffffffffffffffffffffffffffff167f02346ddcf76c3b1b394a4bdae70f10059e1b203aa11e9c1b0313e4a94db673226000808573ffffffffffffffffffffffffffffffffffffffff1673ffffffffffffffffffffffffffffffffffffffff168152602001908152602001600020546040516109609190611510565b60405180910390a25050565b600360009054906101000a900473ffffffffffffffffffffffffffffffffffffffff1673ffffffffffffffffffffffffffffffffffffffff163373ffffffffffffffffffffffffffffffffffffffff16146109fc576040517f08c379a00000000000000000000000000000000000000000000000000000000081526004016109f3906118f7565b60405180910390fd5b600073ffffffffffffffffffffffffffffffffffffffff16600160008773ffffffffffffffffffffffffffffffffffffffff1673ffffffffffffffffffffffffffffffffffffffff16815260200190815260200160002060000160009054906101000a900473ffffffffffffffffffffffffffffffffffffffff1673ffffffffffffffffffffffffffffffffffffffff1614610acd576040517f08c379a0000000000000000000000000000000000000000000000000000000008152600401610ac490611989565b60405180910390fd5b84600160008773ffffffffffffffffffffffffffffffffffffffff1673ffffffffffffffffffffffffffffffffffffffff16815260200190815260200160002060000160006101000a81548173ffffffffffffffffffffffffffffffffffffffff021916908373ffffffffffffffffffffffffffffffffffffffff16021790555083600160008773ffffffffffffffffffffffffffffffffffffffff1673ffffffffffffffffffffffffffffffffffffffff1681526020019081526020016000206001018190555082600160008773ffffffffffffffffffffffffffffffffffffffff1673ffffffffffffffffffffffffffffffffffffffff1681526020019081526020016000206002018190555060005b8251811015610ce857600160008773ffffffffffffffffffffffffffffffffffffffff1673ffffffffffffffffffffffffffffffffffffffff1681526020019081526020016000206003016040518060600160405280858481518110610c4857610c47611808565b5b60200260200101518152602001848481518110610c6857610c67611808565b5b60200260200101518152602001600015158152509080600181540180825580915050600190039060005260206000209060030201600090919091909150600082015181600001556020820151816001015560408201518160020160006101000a81548160ff02191690831515021790555050508080600101915050610bdf565b508473ffffffffffffffffffffffffffffffffffffffff167f741499c4edf5c799e9cedfda49b3bcd3bbf97e3b1147b6e91507db50ff25dc6d8585604051610d319291906119a9565b60405180910390a25050505050565b806000808473ffffffffffffffffffffffffffffffffffffffff1673ffffffffffffffffffffffffffffffffffffffff168152602001908152602001600020541015610dc1576040517f08c379a0000000000000000000000000000000000000000000000000000000008152600401610db890611a1e565b60405180910390fd5b806000808473ffffffffffffffffffffffffffffffffffffffff1673ffffffffffffffffffffffffffffffffffffffff1681526020019081526020016000206000828254610e0f9190611a3e565b925050819055508173ffffffffffffffffffffffffffffffffffffffff167f02346ddcf76c3b1b394a4bdae70f10059e1b203aa11e9c1b0313e4a94db673226000808573ffffffffffffffffffffffffffffffffffffffff1673ffffffffffffffffffffffffffffffffffffffff16815260200190815260200160002054604051610e9a9190611510565b60405180910390a25050565b6000600160008473ffffffffffffffffffffffffffffffffffffffff1673ffffffffffffffffffffffffffffffffffffffff16815260200190815260200160002090506000816003018381548110610f0157610f00611808565b5b906000526020600020906003020190508060020160009054906101000a900460ff1615610f63576040517f08c379a0000000000000000000000000000000000000000000000000000000008152600401610f5a90611abe565b60405180910390fd5b80600001543414610fa9576040517f08c379a0000000000000000000000000000000000000000000000000000000008152600401610fa090611b2a565b60405180910390fd5b60018160020160006101000a81548160ff0219169083151502179055508373ffffffffffffffffffffffffffffffffffffffff167fc65a4e529c0450a515882508bea7ee3485fbfdf8436e0bd13dc38dfbc859b1cb344260405161100e9291906119a9565b60405180910390a250505050565b6040518060800160405280600073ffffffffffffffffffffffffffffffffffffffff1681526020016000815260200160008152602001606081525090565b600081519050919050565b600082825260208201905092915050565b6000819050602082019050919050565b600073ffffffffffffffffffffffffffffffffffffffff82169050919050565b60006110b182611086565b9050919050565b6110c1816110a6565b82525050565b60006110d383836110b8565b60208301905092915050565b6000602082019050919050565b60006110f78261105a565b6111018185611065565b935061110c83611076565b8060005b8381101561113d57815161112488826110c7565b975061112f836110df565b925050600181019050611110565b5085935050505092915050565b600081519050919050565b600082825260208201905092915050565b6000819050602082019050919050565b6000819050919050565b61118981611176565b82525050565b600061119b8383611180565b60208301905092915050565b6000602082019050919050565b60006111bf8261114a565b6111c98185611155565b93506111d483611166565b8060005b838110156112055781516111ec888261118f565b97506111f7836111a7565b9250506001810190506111d8565b5085935050505092915050565b6000604082019050818103600083015261122c81856110ec565b9050818103602083015261124081846111b4565b90509392505050565b6000604051905090565b600080fd5b600080fd5b61126681611176565b811461127157600080fd5b50565b6000813590506112838161125d565b92915050565b60006020828403121561129f5761129e611253565b5b60006112ad84828501611274565b91505092915050565b6112bf816110a6565b82525050565b60006020820190506112da60008301846112b6565b92915050565b6112e9816110a6565b81146112f457600080fd5b50565b600081359050611306816112e0565b92915050565b60006020828403121561132257611321611253565b5b6000611330848285016112f7565b91505092915050565b600081519050919050565b600082825260208201905092915050565b6000819050602082019050919050565b60008115159050919050565b61137a81611365565b82525050565b6060820160008201516113966000850182611180565b5060208201516113a96020850182611180565b5060408201516113bc6040850182611371565b50505050565b60006113ce8383611380565b60608301905092915050565b6000602082019050919050565b60006113f282611339565b6113fc8185611344565b935061140783611355565b8060005b8381101561143857815161141f88826113c2565b975061142a836113da565b92505060018101905061140b565b5085935050505092915050565b600060808301600083015161145d60008601826110b8565b5060208301516114706020860182611180565b5060408301516114836040860182611180565b506060830151848203606086015261149b82826113e7565b9150508091505092915050565b600060208201905081810360008301526114c28184611445565b905092915050565b6114d381611176565b82525050565b60006060820190506114ee60008301866112b6565b6114fb60208301856114ca565b61150860408301846114ca565b949350505050565b600060208201905061152560008301846114ca565b92915050565b600082825260208201905092915050565b600061154782611339565b611551818561152b565b935061155c83611355565b8060005b8381101561158d57815161157488826113c2565b975061157f836113da565b925050600181019050611560565b5085935050505092915050565b600060208201905081810360008301526115b4818461153c565b905092915050565b600080604083850312156115d3576115d2611253565b5b60006115e1858286016112f7565b92505060206115f285828601611274565b9150509250929050565b600080fd5b6000601f19601f8301169050919050565b7f4e487b7100000000000000000000000000000000000000000000000000000000600052604160045260246000fd5b61164a82611601565b810181811067ffffffffffffffff8211171561166957611668611612565b5b80604052505050565b600061167c611249565b90506116888282611641565b919050565b600067ffffffffffffffff8211156116a8576116a7611612565b5b602082029050602081019050919050565b600080fd5b60006116d16116cc8461168d565b611672565b905080838252602082019050602084028301858111156116f4576116f36116b9565b5b835b8181101561171d57806117098882611274565b8452602084019350506020810190506116f6565b5050509392505050565b600082601f83011261173c5761173b6115fc565b5b813561174c8482602086016116be565b91505092915050565b600080600080600060a0868803121561177157611770611253565b5b600061177f888289016112f7565b955050602061179088828901611274565b94505060406117a188828901611274565b935050606086013567ffffffffffffffff8111156117c2576117c1611258565b5b6117ce88828901611727565b925050608086013567ffffffffffffffff8111156117ef576117ee611258565b5b6117fb88828901611727565b9150509295509295909350565b7f4e487b7100000000000000000000000000000000000000000000000000000000600052603260045260246000fd5b7f4e487b7100000000000000000000000000000000000000000000000000000000600052601160045260246000fd5b600061187182611176565b915061187c83611176565b925082820190508082111561189457611893611837565b5b92915050565b600082825260208201905092915050565b7f4e6f7420746865206f776e657200000000000000000000000000000000000000600082015250565b60006118e1600d8361189a565b91506118ec826118ab565b602082019050919050565b60006020820190508181036000830152611910816118d4565b9050919050565b7f52656e74616c20616c72656164792065786973747320666f722074686973207460008201527f656e616e74000000000000000000000000000000000000000000000000000000602082015250565b600061197360258361189a565b915061197e82611917565b604082019050919050565b600060208201905081810360008301526119a281611966565b9050919050565b60006040820190506119be60008301856114ca565b6119cb60208301846114ca565b9392505050565b7f72657075746163696f6e206465626520736572206d61796f7220646520300000600082015250565b6000611a08601e8361189a565b9150611a13826119d2565b602082019050919050565b60006020820190508181036000830152611a37816119fb565b9050919050565b6000611a4982611176565b9150611a5483611176565b9250828203905081811115611a6c57611a6b611837565b5b92915050565b7f5061796d656e7420616c7265616479206d616465000000000000000000000000600082015250565b6000611aa860148361189a565b9150611ab382611a72565b602082019050919050565b60006020820190508181036000830152611ad781611a9b565b9050919050565b7f496e636f7272656374207061796d656e7420616d6f756e740000000000000000600082015250565b6000611b1460188361189a565b9150611b1f82611ade565b602082019050919050565b60006020820190508181036000830152611b4381611b07565b905091905056fea264697066735822122045f14f7715cd0e689fb796e039c3183c0f38834c7f8c73343b17df6e54f0933864736f6c63430008180033",
  "linkReferences": {},
  "deployedLinkReferences": {}
}