{
  "_format": "hh-sol-artifact-1",
  "contractName": "Reputation",
  "sourceName": "contracts/Reputation.sol",
  "abi": [
    {
      "inputs": [
        {
          "internalType": "address",
          "name": "_callPermitPrecompile",
          "type": "address"
        }
      ],
      "stateMutability": "nonpayable",
      "type": "constructor"
    },
    {
      "anonymous": false,
      "inputs": [
        {
          "indexed": true,
          "internalType": "address",
          "name": "tenant",
          "type": "address"
        },
        {
          "indexed": false,
          "internalType": "uint256",
          "name": "amount",
          "type": "uint256"
        },
        {
          "indexed": false,
          "internalType": "uint256",
          "name": "date",
          "type": "uint256"
        }
      ],
      "name": "PaymentMade",
      "type": "event"
    },
    {
      "anonymous": false,
      "inputs": [
        {
          "indexed": true,
          "internalType": "address",
          "name": "tenant",
          "type": "address"
        },
        {
          "indexed": false,
          "internalType": "uint256",
          "name": "startDate",
          "type": "uint256"
        },
        {
          "indexed": false,
          "internalType": "uint256",
          "name": "endDate",
          "type": "uint256"
        }
      ],
      "name": "RentalCreated",
      "type": "event"
    },
    {
      "anonymous": false,
      "inputs": [
        {
          "indexed": true,
          "internalType": "address",
          "name": "user",
          "type": "address"
        },
        {
          "indexed": false,
          "internalType": "uint256",
          "name": "newReputation",
          "type": "uint256"
        }
      ],
      "name": "ReputationChanged",
      "type": "event"
    },
    {
      "inputs": [],
      "name": "callPermitPrecompile",
      "outputs": [
        {
          "internalType": "contract ICallPermitPrecompile",
          "name": "",
          "type": "address"
        }
      ],
      "stateMutability": "view",
      "type": "function"
    },
    {
      "inputs": [
        {
          "internalType": "address",
          "name": "tenant",
          "type": "address"
        },
        {
          "internalType": "uint256",
          "name": "startDate",
          "type": "uint256"
        },
        {
          "internalType": "uint256",
          "name": "endDate",
          "type": "uint256"
        },
        {
          "internalType": "uint256[]",
          "name": "amounts",
          "type": "uint256[]"
        },
        {
          "internalType": "uint256[]",
          "name": "dueDates",
          "type": "uint256[]"
        }
      ],
      "name": "createRental",
      "outputs": [],
      "stateMutability": "nonpayable",
      "type": "function"
    },
    {
      "inputs": [
        {
          "internalType": "address",
          "name": "user",
          "type": "address"
        },
        {
          "internalType": "uint256",
          "name": "amount",
          "type": "uint256"
        }
      ],
      "name": "decreaseReputation",
      "outputs": [],
      "stateMutability": "nonpayable",
      "type": "function"
    },
    {
      "inputs": [],
      "name": "getAllReputations",
      "outputs": [
        {
          "internalType": "address[]",
          "name": "",
          "type": "address[]"
        },
        {
          "internalType": "uint256[]",
          "name": "",
          "type": "uint256[]"
        }
      ],
      "stateMutability": "view",
      "type": "function"
    },
    {
      "inputs": [
        {
          "internalType": "address",
          "name": "tenant",
          "type": "address"
        }
      ],
      "name": "getPaymentPlans",
      "outputs": [
        {
          "components": [
            {
              "internalType": "uint256",
              "name": "amount",
              "type": "uint256"
            },
            {
              "internalType": "uint256",
              "name": "dueDate",
              "type": "uint256"
            },
            {
              "internalType": "bool",
              "name": "paid",
              "type": "bool"
            }
          ],
          "internalType": "struct Reputation.PaymentPlan[]",
          "name": "",
          "type": "tuple[]"
        }
      ],
      "stateMutability": "view",
      "type": "function"
    },
    {
      "inputs": [
        {
          "internalType": "address",
          "name": "tenant",
          "type": "address"
        }
      ],
      "name": "getRental",
      "outputs": [
        {
          "components": [
            {
              "internalType": "address",
              "name": "tenant",
              "type": "address"
            },
            {
              "internalType": "uint256",
              "name": "startDate",
              "type": "uint256"
            },
            {
              "internalType": "uint256",
              "name": "endDate",
              "type": "uint256"
            },
            {
              "components": [
                {
                  "internalType": "uint256",
                  "name": "amount",
                  "type": "uint256"
                },
                {
                  "internalType": "uint256",
                  "name": "dueDate",
                  "type": "uint256"
                },
                {
                  "internalType": "bool",
                  "name": "paid",
                  "type": "bool"
                }
              ],
              "internalType": "struct Reputation.PaymentPlan[]",
              "name": "paymentPlans",
              "type": "tuple[]"
            }
          ],
          "internalType": "struct Reputation.Rental",
          "name": "",
          "type": "tuple"
        }
      ],
      "stateMutability": "view",
      "type": "function"
    },
    {
      "inputs": [
        {
          "internalType": "address",
          "name": "user",
          "type": "address"
        }
      ],
      "name": "getReputation",
      "outputs": [
        {
          "internalType": "uint256",
          "name": "",
          "type": "uint256"
        }
      ],
      "stateMutability": "view",
      "type": "function"
    },
    {
      "inputs": [
        {
          "internalType": "address",
          "name": "user",
          "type": "address"
        },
        {
          "internalType": "uint256",
          "name": "amount",
          "type": "uint256"
        }
      ],
      "name": "increaseReputation",
      "outputs": [],
      "stateMutability": "nonpayable",
      "type": "function"
    },
    {
      "inputs": [
        {
          "internalType": "address",
          "name": "tenant",
          "type": "address"
        },
        {
          "internalType": "uint256",
          "name": "paymentPlanIndex",
          "type": "uint256"
        },
        {
          "internalType": "uint256",
          "name": "amount",
          "type": "uint256"
        },
        {
          "internalType": "uint256",
          "name": "feeAmount",
          "type": "uint256"
        },
        {
          "internalType": "uint256",
          "name": "nonce",
          "type": "uint256"
        },
        {
          "internalType": "bytes",
          "name": "signature",
          "type": "bytes"
        }
      ],
      "name": "makePayment",
      "outputs": [],
      "stateMutability": "nonpayable",
      "type": "function"
    },
    {
      "inputs": [],
      "name": "owner",
      "outputs": [
        {
          "internalType": "address",
          "name": "",
          "type": "address"
        }
      ],
      "stateMutability": "view",
      "type": "function"
    },
    {
      "inputs": [
        {
          "internalType": "address",
          "name": "",
          "type": "address"
        }
      ],
      "name": "rentals",
      "outputs": [
        {
          "internalType": "address",
          "name": "tenant",
          "type": "address"
        },
        {
          "internalType": "uint256",
          "name": "startDate",
          "type": "uint256"
        },
        {
          "internalType": "uint256",
          "name": "endDate",
          "type": "uint256"
        }
      ],
      "stateMutability": "view",
      "type": "function"
    },
    {
      "inputs": [
        {
          "internalType": "address",
          "name": "",
          "type": "address"
        }
      ],
      "name": "reputation",
      "outputs": [
        {
          "internalType": "uint256",
          "name": "",
          "type": "uint256"
        }
      ],
      "stateMutability": "view",
      "type": "function"
    },
    {
      "inputs": [
        {
          "internalType": "uint256",
          "name": "",
          "type": "uint256"
        }
      ],
      "name": "users",
      "outputs": [
        {
          "internalType": "address",
          "name": "",
          "type": "address"
        }
      ],
      "stateMutability": "view",
      "type": "function"
    }
  ],
  "bytecode": "0x60806040523480156200001157600080fd5b506040516200213e3803806200213e83398181016040528101906200003791906200012a565b33600360006101000a81548173ffffffffffffffffffffffffffffffffffffffff021916908373ffffffffffffffffffffffffffffffffffffffff16021790555080600460006101000a81548173ffffffffffffffffffffffffffffffffffffffff021916908373ffffffffffffffffffffffffffffffffffffffff160217905550506200015c565b600080fd5b600073ffffffffffffffffffffffffffffffffffffffff82169050919050565b6000620000f282620000c5565b9050919050565b6200010481620000e5565b81146200011057600080fd5b50565b6000815190506200012481620000f9565b92915050565b600060208284031215620001435762000142620000c0565b5b6000620001538482850162000113565b91505092915050565b611fd2806200016c6000396000f3fe608060405234801561001057600080fd5b50600436106100cf5760003560e01c80639c89a0e21161008c578063b9f7945111610066578063b9f794511461023d578063ded86d681461026d578063e6a84ccb14610289578063ed9fa61b146102a5576100cf565b80639c89a0e2146101c1578063a68b90b4146101f1578063b4bea1311461020d576100cf565b806313ac506e146100d45780632f435b3f146100f2578063365b98b21461011157806367c8833c146101415780636ba85eb4146101715780638da5cb5b146101a3575b600080fd5b6100dc6102c1565b6040516100e991906111a7565b60405180910390f35b6100fa6102e7565b60405161010892919061135a565b60405180910390f35b61012b600480360381019061012691906113d1565b61048a565b604051610138919061140d565b60405180910390f35b61015b60048036038101906101569190611454565b6104c9565b60405161016891906115f0565b60405180910390f35b61018b60048036038101906101869190611454565b61061a565b60405161019a93929190611621565b60405180910390f35b6101ab610664565b6040516101b8919061140d565b60405180910390f35b6101db60048036038101906101d69190611454565b61068a565b6040516101e89190611658565b60405180910390f35b61020b600480360381019061020691906117b9565b6106d2565b005b61022760048036038101906102229190611454565b610939565b60405161023491906118d1565b60405180910390f35b61025760048036038101906102529190611454565b610a09565b6040516102649190611658565b60405180910390f35b610287600480360381019061028291906118f3565b610a21565b005b6102a3600480360381019061029e91906119fb565b610bb0565b005b6102bf60048036038101906102ba91906118f3565b610f84565b005b600460009054906101000a900473ffffffffffffffffffffffffffffffffffffffff1681565b606080600060028054905067ffffffffffffffff81111561030b5761030a61168e565b5b6040519080825280602002602001820160405280156103395781602001602082028036833780820191505090505b50905060005b6002805490508110156103f5576000806002838154811061036357610362611aae565b5b9060005260206000200160009054906101000a900473ffffffffffffffffffffffffffffffffffffffff1673ffffffffffffffffffffffffffffffffffffffff1673ffffffffffffffffffffffffffffffffffffffff168152602001908152602001600020548282815181106103dc576103db611aae565b5b602002602001018181525050808060010191505061033f565b506002818180548060200260200160405190810160405280929190818152602001828054801561047a57602002820191906000526020600020905b8160009054906101000a900473ffffffffffffffffffffffffffffffffffffffff1673ffffffffffffffffffffffffffffffffffffffff1681526020019060010190808311610430575b5050505050915092509250509091565b6002818154811061049a57600080fd5b906000526020600020016000915054906101000a900473ffffffffffffffffffffffffffffffffffffffff1681565b6104d16110ea565b600160008373ffffffffffffffffffffffffffffffffffffffff1673ffffffffffffffffffffffffffffffffffffffff1681526020019081526020016000206040518060800160405290816000820160009054906101000a900473ffffffffffffffffffffffffffffffffffffffff1673ffffffffffffffffffffffffffffffffffffffff1673ffffffffffffffffffffffffffffffffffffffff168152602001600182015481526020016002820154815260200160038201805480602002602001604051908101604052809291908181526020016000905b8282101561060b578382906000526020600020906003020160405180606001604052908160008201548152602001600182015481526020016002820160009054906101000a900460ff161515151581525050815260200190600101906105aa565b50505050815250509050919050565b60016020528060005260406000206000915090508060000160009054906101000a900473ffffffffffffffffffffffffffffffffffffffff16908060010154908060020154905083565b600360009054906101000a900473ffffffffffffffffffffffffffffffffffffffff1681565b60008060008373ffffffffffffffffffffffffffffffffffffffff1673ffffffffffffffffffffffffffffffffffffffff168152602001908152602001600020549050919050565b6000600160008873ffffffffffffffffffffffffffffffffffffffff1673ffffffffffffffffffffffffffffffffffffffff1681526020019081526020016000209050600081600301878154811061072d5761072c611aae565b5b906000526020600020906003020190508060020160009054906101000a900460ff161561078f576040517f08c379a000000000000000000000000000000000000000000000000000000000815260040161078690611b3a565b60405180910390fd5b806000015486146107d5576040517f08c379a00000000000000000000000000000000000000000000000000000000081526004016107cc90611ba6565b60405180910390fd5b6000600460009054906101000a900473ffffffffffffffffffffffffffffffffffffffff1673ffffffffffffffffffffffffffffffffffffffff16634f6be2b78a308a8a8a8a6040518763ffffffff1660e01b815260040161083c96959493929190611c45565b6020604051808303816000875af115801561085b573d6000803e3d6000fd5b505050506040513d601f19601f8201168201806040525081019061087f9190611cd9565b9050806108c1576040517f08c379a00000000000000000000000000000000000000000000000000000000081526004016108b890611d52565b60405180910390fd5b60018260020160006101000a81548160ff0219169083151502179055508873ffffffffffffffffffffffffffffffffffffffff167fc65a4e529c0450a515882508bea7ee3485fbfdf8436e0bd13dc38dfbc859b1cb8842604051610926929190611d72565b60405180910390a2505050505050505050565b6060600160008373ffffffffffffffffffffffffffffffffffffffff1673ffffffffffffffffffffffffffffffffffffffff168152602001908152602001600020600301805480602002602001604051908101604052809291908181526020016000905b828210156109fe578382906000526020600020906003020160405180606001604052908160008201548152602001600182015481526020016002820160009054906101000a900460ff1615151515815250508152602001906001019061099d565b505050509050919050565b60006020528060005260406000206000915090505481565b60008060008473ffffffffffffffffffffffffffffffffffffffff1673ffffffffffffffffffffffffffffffffffffffff1681526020019081526020016000205403610acb576002829080600181540180825580915050600190039060005260206000200160009091909190916101000a81548173ffffffffffffffffffffffffffffffffffffffff021916908373ffffffffffffffffffffffffffffffffffffffff1602179055505b806000808473ffffffffffffffffffffffffffffffffffffffff1673ffffffffffffffffffffffffffffffffffffffff1681526020019081526020016000206000828254610b199190611dca565b925050819055508173ffffffffffffffffffffffffffffffffffffffff167f02346ddcf76c3b1b394a4bdae70f10059e1b203aa11e9c1b0313e4a94db673226000808573ffffffffffffffffffffffffffffffffffffffff1673ffffffffffffffffffffffffffffffffffffffff16815260200190815260200160002054604051610ba49190611658565b60405180910390a25050565b600360009054906101000a900473ffffffffffffffffffffffffffffffffffffffff1673ffffffffffffffffffffffffffffffffffffffff163373ffffffffffffffffffffffffffffffffffffffff1614610c40576040517f08c379a0000000000000000000000000000000000000000000000000000000008152600401610c3790611e4a565b60405180910390fd5b600073ffffffffffffffffffffffffffffffffffffffff16600160008773ffffffffffffffffffffffffffffffffffffffff1673ffffffffffffffffffffffffffffffffffffffff16815260200190815260200160002060000160009054906101000a900473ffffffffffffffffffffffffffffffffffffffff1673ffffffffffffffffffffffffffffffffffffffff1614610d11576040517f08c379a0000000000000000000000000000000000000000000000000000000008152600401610d0890611edc565b60405180910390fd5b84600160008773ffffffffffffffffffffffffffffffffffffffff1673ffffffffffffffffffffffffffffffffffffffff16815260200190815260200160002060000160006101000a81548173ffffffffffffffffffffffffffffffffffffffff021916908373ffffffffffffffffffffffffffffffffffffffff16021790555083600160008773ffffffffffffffffffffffffffffffffffffffff1673ffffffffffffffffffffffffffffffffffffffff1681526020019081526020016000206001018190555082600160008773ffffffffffffffffffffffffffffffffffffffff1673ffffffffffffffffffffffffffffffffffffffff1681526020019081526020016000206002018190555060005b8251811015610f2c57600160008773ffffffffffffffffffffffffffffffffffffffff1673ffffffffffffffffffffffffffffffffffffffff1681526020019081526020016000206003016040518060600160405280858481518110610e8c57610e8b611aae565b5b60200260200101518152602001848481518110610eac57610eab611aae565b5b60200260200101518152602001600015158152509080600181540180825580915050600190039060005260206000209060030201600090919091909150600082015181600001556020820151816001015560408201518160020160006101000a81548160ff02191690831515021790555050508080600101915050610e23565b508473ffffffffffffffffffffffffffffffffffffffff167f741499c4edf5c799e9cedfda49b3bcd3bbf97e3b1147b6e91507db50ff25dc6d8585604051610f75929190611d72565b60405180910390a25050505050565b806000808473ffffffffffffffffffffffffffffffffffffffff1673ffffffffffffffffffffffffffffffffffffffff168152602001908152602001600020541015611005576040517f08c379a0000000000000000000000000000000000000000000000000000000008152600401610ffc90611f48565b60405180910390fd5b806000808473ffffffffffffffffffffffffffffffffffffffff1673ffffffffffffffffffffffffffffffffffffffff16815260200190815260200160002060008282546110539190611f68565b925050819055508173ffffffffffffffffffffffffffffffffffffffff167f02346ddcf76c3b1b394a4bdae70f10059e1b203aa11e9c1b0313e4a94db673226000808573ffffffffffffffffffffffffffffffffffffffff1673ffffffffffffffffffffffffffffffffffffffff168152602001908152602001600020546040516110de9190611658565b60405180910390a25050565b6040518060800160405280600073ffffffffffffffffffffffffffffffffffffffff1681526020016000815260200160008152602001606081525090565b600073ffffffffffffffffffffffffffffffffffffffff82169050919050565b6000819050919050565b600061116d61116861116384611128565b611148565b611128565b9050919050565b600061117f82611152565b9050919050565b600061119182611174565b9050919050565b6111a181611186565b82525050565b60006020820190506111bc6000830184611198565b92915050565b600081519050919050565b600082825260208201905092915050565b6000819050602082019050919050565b60006111f982611128565b9050919050565b611209816111ee565b82525050565b600061121b8383611200565b60208301905092915050565b6000602082019050919050565b600061123f826111c2565b61124981856111cd565b9350611254836111de565b8060005b8381101561128557815161126c888261120f565b975061127783611227565b925050600181019050611258565b5085935050505092915050565b600081519050919050565b600082825260208201905092915050565b6000819050602082019050919050565b6000819050919050565b6112d1816112be565b82525050565b60006112e383836112c8565b60208301905092915050565b6000602082019050919050565b600061130782611292565b611311818561129d565b935061131c836112ae565b8060005b8381101561134d57815161133488826112d7565b975061133f836112ef565b925050600181019050611320565b5085935050505092915050565b600060408201905081810360008301526113748185611234565b9050818103602083015261138881846112fc565b90509392505050565b6000604051905090565b600080fd5b600080fd5b6113ae816112be565b81146113b957600080fd5b50565b6000813590506113cb816113a5565b92915050565b6000602082840312156113e7576113e661139b565b5b60006113f5848285016113bc565b91505092915050565b611407816111ee565b82525050565b600060208201905061142260008301846113fe565b92915050565b611431816111ee565b811461143c57600080fd5b50565b60008135905061144e81611428565b92915050565b60006020828403121561146a5761146961139b565b5b60006114788482850161143f565b91505092915050565b600081519050919050565b600082825260208201905092915050565b6000819050602082019050919050565b60008115159050919050565b6114c2816114ad565b82525050565b6060820160008201516114de60008501826112c8565b5060208201516114f160208501826112c8565b50604082015161150460408501826114b9565b50505050565b600061151683836114c8565b60608301905092915050565b6000602082019050919050565b600061153a82611481565b611544818561148c565b935061154f8361149d565b8060005b83811015611580578151611567888261150a565b975061157283611522565b925050600181019050611553565b5085935050505092915050565b60006080830160008301516115a56000860182611200565b5060208301516115b860208601826112c8565b5060408301516115cb60408601826112c8565b50606083015184820360608601526115e3828261152f565b9150508091505092915050565b6000602082019050818103600083015261160a818461158d565b905092915050565b61161b816112be565b82525050565b600060608201905061163660008301866113fe565b6116436020830185611612565b6116506040830184611612565b949350505050565b600060208201905061166d6000830184611612565b92915050565b600080fd5b600080fd5b6000601f19601f8301169050919050565b7f4e487b7100000000000000000000000000000000000000000000000000000000600052604160045260246000fd5b6116c68261167d565b810181811067ffffffffffffffff821117156116e5576116e461168e565b5b80604052505050565b60006116f8611391565b905061170482826116bd565b919050565b600067ffffffffffffffff8211156117245761172361168e565b5b61172d8261167d565b9050602081019050919050565b82818337600083830152505050565b600061175c61175784611709565b6116ee565b90508281526020810184848401111561177857611777611678565b5b61178384828561173a565b509392505050565b600082601f8301126117a05761179f611673565b5b81356117b0848260208601611749565b91505092915050565b60008060008060008060c087890312156117d6576117d561139b565b5b60006117e489828a0161143f565b96505060206117f589828a016113bc565b955050604061180689828a016113bc565b945050606061181789828a016113bc565b935050608061182889828a016113bc565b92505060a087013567ffffffffffffffff811115611849576118486113a0565b5b61185589828a0161178b565b9150509295509295509295565b600082825260208201905092915050565b600061187e82611481565b6118888185611862565b93506118938361149d565b8060005b838110156118c45781516118ab888261150a565b97506118b683611522565b925050600181019050611897565b5085935050505092915050565b600060208201905081810360008301526118eb8184611873565b905092915050565b6000806040838503121561190a5761190961139b565b5b60006119188582860161143f565b9250506020611929858286016113bc565b9150509250929050565b600067ffffffffffffffff82111561194e5761194d61168e565b5b602082029050602081019050919050565b600080fd5b600061197761197284611933565b6116ee565b9050808382526020820190506020840283018581111561199a5761199961195f565b5b835b818110156119c357806119af88826113bc565b84526020840193505060208101905061199c565b5050509392505050565b600082601f8301126119e2576119e1611673565b5b81356119f2848260208601611964565b91505092915050565b600080600080600060a08688031215611a1757611a1661139b565b5b6000611a258882890161143f565b9550506020611a36888289016113bc565b9450506040611a47888289016113bc565b935050606086013567ffffffffffffffff811115611a6857611a676113a0565b5b611a74888289016119cd565b925050608086013567ffffffffffffffff811115611a9557611a946113a0565b5b611aa1888289016119cd565b9150509295509295909350565b7f4e487b7100000000000000000000000000000000000000000000000000000000600052603260045260246000fd5b600082825260208201905092915050565b7f5061796d656e7420616c7265616479206d616465000000000000000000000000600082015250565b6000611b24601483611add565b9150611b2f82611aee565b602082019050919050565b60006020820190508181036000830152611b5381611b17565b9050919050565b7f496e636f7272656374207061796d656e7420616d6f756e740000000000000000600082015250565b6000611b90601883611add565b9150611b9b82611b5a565b602082019050919050565b60006020820190508181036000830152611bbf81611b83565b9050919050565b600081519050919050565b600082825260208201905092915050565b60005b83811015611c00578082015181840152602081019050611be5565b60008484015250505050565b6000611c1782611bc6565b611c218185611bd1565b9350611c31818560208601611be2565b611c3a8161167d565b840191505092915050565b600060c082019050611c5a60008301896113fe565b611c6760208301886113fe565b611c746040830187611612565b611c816060830186611612565b611c8e6080830185611612565b81810360a0830152611ca08184611c0c565b9050979650505050505050565b611cb6816114ad565b8114611cc157600080fd5b50565b600081519050611cd381611cad565b92915050565b600060208284031215611cef57611cee61139b565b5b6000611cfd84828501611cc4565b91505092915050565b7f43616c6c205065726d697420507265636f6d70696c65206661696c6564000000600082015250565b6000611d3c601d83611add565b9150611d4782611d06565b602082019050919050565b60006020820190508181036000830152611d6b81611d2f565b9050919050565b6000604082019050611d876000830185611612565b611d946020830184611612565b9392505050565b7f4e487b7100000000000000000000000000000000000000000000000000000000600052601160045260246000fd5b6000611dd5826112be565b9150611de0836112be565b9250828201905080821115611df857611df7611d9b565b5b92915050565b7f4e6f7420746865206f776e657200000000000000000000000000000000000000600082015250565b6000611e34600d83611add565b9150611e3f82611dfe565b602082019050919050565b60006020820190508181036000830152611e6381611e27565b9050919050565b7f52656e74616c20616c72656164792065786973747320666f722074686973207460008201527f656e616e74000000000000000000000000000000000000000000000000000000602082015250565b6000611ec6602583611add565b9150611ed182611e6a565b604082019050919050565b60006020820190508181036000830152611ef581611eb9565b9050919050565b7f72657075746163696f6e206465626520736572206d61796f7220646520300000600082015250565b6000611f32601e83611add565b9150611f3d82611efc565b602082019050919050565b60006020820190508181036000830152611f6181611f25565b9050919050565b6000611f73826112be565b9150611f7e836112be565b9250828203905081811115611f9657611f95611d9b565b5b9291505056fea264697066735822122060a684473d119735b0f06e1790970ea47703f86555aba83517882b72cba4597064736f6c63430008180033",
  "linkReferences": {},
  "deployedLinkReferences": {}
}