{
  "_format": "hh-sol-artifact-1",
  "contractName": "Reputation",
  "sourceName": "contracts/Reputation.sol",
  "abi": [
    {
      "anonymous": false,
      "inputs": [
        {
          "indexed": true,
          "internalType": "address",
          "name": "user",
          "type": "address"
        },
        {
          "indexed": false,
          "internalType": "uint256",
          "name": "newReputation",
          "type": "uint256"
        }
      ],
      "name": "ReputationChanged",
      "type": "event"
    },
    {
      "inputs": [
        {
          "internalType": "address",
          "name": "",
          "type": "address"
        }
      ],
      "name": "authorizedUsers",
      "outputs": [
        {
          "internalType": "bool",
          "name": "",
          "type": "bool"
        }
      ],
      "stateMutability": "view",
      "type": "function"
    },
    {
      "inputs": [
        {
          "internalType": "address",
          "name": "user",
          "type": "address"
        },
        {
          "internalType": "uint256",
          "name": "amount",
          "type": "uint256"
        }
      ],
      "name": "decreaseReputation",
      "outputs": [],
      "stateMutability": "nonpayable",
      "type": "function"
    },
    {
      "inputs": [],
      "name": "getAllReputations",
      "outputs": [
        {
          "internalType": "address[]",
          "name": "",
          "type": "address[]"
        },
        {
          "internalType": "uint256[]",
          "name": "",
          "type": "uint256[]"
        }
      ],
      "stateMutability": "view",
      "type": "function"
    },
    {
      "inputs": [
        {
          "internalType": "address",
          "name": "user",
          "type": "address"
        }
      ],
      "name": "getReputation",
      "outputs": [
        {
          "internalType": "uint256",
          "name": "",
          "type": "uint256"
        }
      ],
      "stateMutability": "view",
      "type": "function"
    },
    {
      "inputs": [
        {
          "internalType": "address",
          "name": "user",
          "type": "address"
        },
        {
          "internalType": "uint256",
          "name": "amount",
          "type": "uint256"
        }
      ],
      "name": "increaseReputation",
      "outputs": [],
      "stateMutability": "nonpayable",
      "type": "function"
    },
    {
      "inputs": [
        {
          "internalType": "address",
          "name": "",
          "type": "address"
        }
      ],
      "name": "reputation",
      "outputs": [
        {
          "internalType": "uint256",
          "name": "",
          "type": "uint256"
        }
      ],
      "stateMutability": "view",
      "type": "function"
    },
    {
      "inputs": [
        {
          "internalType": "uint256",
          "name": "",
          "type": "uint256"
        }
      ],
      "name": "users",
      "outputs": [
        {
          "internalType": "address",
          "name": "",
          "type": "address"
        }
      ],
      "stateMutability": "view",
      "type": "function"
    }
  ],
  "bytecode": "0x608060405234801561001057600080fd5b50610c08806100206000396000f3fe608060405234801561001057600080fd5b506004361061007d5760003560e01c80639c89a0e21161005b5780639c89a0e214610101578063b9f7945114610131578063ded86d6814610161578063ed9fa61b1461017d5761007d565b80631828983a146100825780632f435b3f146100b2578063365b98b2146100d1575b600080fd5b61009c60048036038101906100979190610753565b610199565b6040516100a9919061079b565b60405180910390f35b6100ba6101b9565b6040516100c892919061093c565b60405180910390f35b6100eb60048036038101906100e6919061099f565b61035c565b6040516100f891906109db565b60405180910390f35b61011b60048036038101906101169190610753565b61039b565b6040516101289190610a05565b60405180910390f35b61014b60048036038101906101469190610753565b6103e3565b6040516101589190610a05565b60405180910390f35b61017b60048036038101906101769190610a20565b6103fb565b005b61019760048036038101906101929190610a20565b61058a565b005b60016020528060005260406000206000915054906101000a900460ff1681565b606080600060028054905067ffffffffffffffff8111156101dd576101dc610a60565b5b60405190808252806020026020018201604052801561020b5781602001602082028036833780820191505090505b50905060005b6002805490508110156102c7576000806002838154811061023557610234610a8f565b5b9060005260206000200160009054906101000a900473ffffffffffffffffffffffffffffffffffffffff1673ffffffffffffffffffffffffffffffffffffffff1673ffffffffffffffffffffffffffffffffffffffff168152602001908152602001600020548282815181106102ae576102ad610a8f565b5b6020026020010181815250508080600101915050610211565b506002818180548060200260200160405190810160405280929190818152602001828054801561034c57602002820191906000526020600020905b8160009054906101000a900473ffffffffffffffffffffffffffffffffffffffff1673ffffffffffffffffffffffffffffffffffffffff1681526020019060010190808311610302575b5050505050915092509250509091565b6002818154811061036c57600080fd5b906000526020600020016000915054906101000a900473ffffffffffffffffffffffffffffffffffffffff1681565b60008060008373ffffffffffffffffffffffffffffffffffffffff1673ffffffffffffffffffffffffffffffffffffffff168152602001908152602001600020549050919050565b60006020528060005260406000206000915090505481565b60008060008473ffffffffffffffffffffffffffffffffffffffff1673ffffffffffffffffffffffffffffffffffffffff16815260200190815260200160002054036104a5576002829080600181540180825580915050600190039060005260206000200160009091909190916101000a81548173ffffffffffffffffffffffffffffffffffffffff021916908373ffffffffffffffffffffffffffffffffffffffff1602179055505b806000808473ffffffffffffffffffffffffffffffffffffffff1673ffffffffffffffffffffffffffffffffffffffff16815260200190815260200160002060008282546104f39190610aed565b925050819055508173ffffffffffffffffffffffffffffffffffffffff167f02346ddcf76c3b1b394a4bdae70f10059e1b203aa11e9c1b0313e4a94db673226000808573ffffffffffffffffffffffffffffffffffffffff1673ffffffffffffffffffffffffffffffffffffffff1681526020019081526020016000205460405161057e9190610a05565b60405180910390a25050565b806000808473ffffffffffffffffffffffffffffffffffffffff1673ffffffffffffffffffffffffffffffffffffffff16815260200190815260200160002054101561060b576040517f08c379a000000000000000000000000000000000000000000000000000000000815260040161060290610b7e565b60405180910390fd5b806000808473ffffffffffffffffffffffffffffffffffffffff1673ffffffffffffffffffffffffffffffffffffffff16815260200190815260200160002060008282546106599190610b9e565b925050819055508173ffffffffffffffffffffffffffffffffffffffff167f02346ddcf76c3b1b394a4bdae70f10059e1b203aa11e9c1b0313e4a94db673226000808573ffffffffffffffffffffffffffffffffffffffff1673ffffffffffffffffffffffffffffffffffffffff168152602001908152602001600020546040516106e49190610a05565b60405180910390a25050565b600080fd5b600073ffffffffffffffffffffffffffffffffffffffff82169050919050565b6000610720826106f5565b9050919050565b61073081610715565b811461073b57600080fd5b50565b60008135905061074d81610727565b92915050565b600060208284031215610769576107686106f0565b5b60006107778482850161073e565b91505092915050565b60008115159050919050565b61079581610780565b82525050565b60006020820190506107b0600083018461078c565b92915050565b600081519050919050565b600082825260208201905092915050565b6000819050602082019050919050565b6107eb81610715565b82525050565b60006107fd83836107e2565b60208301905092915050565b6000602082019050919050565b6000610821826107b6565b61082b81856107c1565b9350610836836107d2565b8060005b8381101561086757815161084e88826107f1565b975061085983610809565b92505060018101905061083a565b5085935050505092915050565b600081519050919050565b600082825260208201905092915050565b6000819050602082019050919050565b6000819050919050565b6108b3816108a0565b82525050565b60006108c583836108aa565b60208301905092915050565b6000602082019050919050565b60006108e982610874565b6108f3818561087f565b93506108fe83610890565b8060005b8381101561092f57815161091688826108b9565b9750610921836108d1565b925050600181019050610902565b5085935050505092915050565b600060408201905081810360008301526109568185610816565b9050818103602083015261096a81846108de565b90509392505050565b61097c816108a0565b811461098757600080fd5b50565b60008135905061099981610973565b92915050565b6000602082840312156109b5576109b46106f0565b5b60006109c38482850161098a565b91505092915050565b6109d581610715565b82525050565b60006020820190506109f060008301846109cc565b92915050565b6109ff816108a0565b82525050565b6000602082019050610a1a60008301846109f6565b92915050565b60008060408385031215610a3757610a366106f0565b5b6000610a458582860161073e565b9250506020610a568582860161098a565b9150509250929050565b7f4e487b7100000000000000000000000000000000000000000000000000000000600052604160045260246000fd5b7f4e487b7100000000000000000000000000000000000000000000000000000000600052603260045260246000fd5b7f4e487b7100000000000000000000000000000000000000000000000000000000600052601160045260246000fd5b6000610af8826108a0565b9150610b03836108a0565b9250828201905080821115610b1b57610b1a610abe565b5b92915050565b600082825260208201905092915050565b7f72657075746163696f6e206465626520736572206d61796f7220646520300000600082015250565b6000610b68601e83610b21565b9150610b7382610b32565b602082019050919050565b60006020820190508181036000830152610b9781610b5b565b9050919050565b6000610ba9826108a0565b9150610bb4836108a0565b9250828203905081811115610bcc57610bcb610abe565b5b9291505056fea2646970667358221220b7a4aeaafce92bf828edbb44792260bb270db4e4b2b4d2f30e80769a8bb36be964736f6c63430008180033",
  "linkReferences": {},
  "deployedLinkReferences": {}
}