{
  "_format": "hh-sol-artifact-1",
  "contractName": "Reputation",
  "sourceName": "contracts/Reputation.sol",
  "abi": [
    {
      "anonymous": false,
      "inputs": [
        {
          "indexed": true,
          "internalType": "address",
          "name": "user",
          "type": "address"
        },
        {
          "indexed": false,
          "internalType": "uint256",
          "name": "newReputation",
          "type": "uint256"
        }
      ],
      "name": "ReputationChanged",
      "type": "event"
    },
    {
      "inputs": [
        {
          "internalType": "address",
          "name": "user",
          "type": "address"
        },
        {
          "internalType": "uint256",
          "name": "amount",
          "type": "uint256"
        }
      ],
      "name": "decreaseReputation",
      "outputs": [],
      "stateMutability": "nonpayable",
      "type": "function"
    },
    {
      "inputs": [],
      "name": "getAllReputations",
      "outputs": [
        {
          "internalType": "address[]",
          "name": "",
          "type": "address[]"
        },
        {
          "internalType": "uint256[]",
          "name": "",
          "type": "uint256[]"
        }
      ],
      "stateMutability": "view",
      "type": "function"
    },
    {
      "inputs": [
        {
          "internalType": "address",
          "name": "user",
          "type": "address"
        }
      ],
      "name": "getReputation",
      "outputs": [
        {
          "internalType": "uint256",
          "name": "",
          "type": "uint256"
        }
      ],
      "stateMutability": "view",
      "type": "function"
    },
    {
      "inputs": [
        {
          "internalType": "address",
          "name": "user",
          "type": "address"
        },
        {
          "internalType": "uint256",
          "name": "amount",
          "type": "uint256"
        }
      ],
      "name": "increaseReputation",
      "outputs": [],
      "stateMutability": "nonpayable",
      "type": "function"
    },
    {
      "inputs": [
        {
          "internalType": "address",
          "name": "",
          "type": "address"
        }
      ],
      "name": "reputation",
      "outputs": [
        {
          "internalType": "uint256",
          "name": "",
          "type": "uint256"
        }
      ],
      "stateMutability": "view",
      "type": "function"
    },
    {
      "inputs": [
        {
          "internalType": "uint256",
          "name": "",
          "type": "uint256"
        }
      ],
      "name": "users",
      "outputs": [
        {
          "internalType": "address",
          "name": "",
          "type": "address"
        }
      ],
      "stateMutability": "view",
      "type": "function"
    }
  ],
  "bytecode": "0x608060405234801561001057600080fd5b50610b67806100206000396000f3fe608060405234801561001057600080fd5b50600436106100625760003560e01c80632f435b3f14610067578063365b98b2146100865780639c89a0e2146100b6578063b9f79451146100e6578063ded86d6814610116578063ed9fa61b14610132575b600080fd5b61006f61014e565b60405161007d92919061083d565b60405180910390f35b6100a0600480360381019061009b91906108a5565b6102f1565b6040516100ad91906108e1565b60405180910390f35b6100d060048036038101906100cb9190610928565b610330565b6040516100dd9190610964565b60405180910390f35b61010060048036038101906100fb9190610928565b610378565b60405161010d9190610964565b60405180910390f35b610130600480360381019061012b919061097f565b610390565b005b61014c6004803603810190610147919061097f565b61051f565b005b606080600060018054905067ffffffffffffffff811115610172576101716109bf565b5b6040519080825280602002602001820160405280156101a05781602001602082028036833780820191505090505b50905060005b60018054905081101561025c57600080600183815481106101ca576101c96109ee565b5b9060005260206000200160009054906101000a900473ffffffffffffffffffffffffffffffffffffffff1673ffffffffffffffffffffffffffffffffffffffff1673ffffffffffffffffffffffffffffffffffffffff16815260200190815260200160002054828281518110610243576102426109ee565b5b60200260200101818152505080806001019150506101a6565b50600181818054806020026020016040519081016040528092919081815260200182805480156102e157602002820191906000526020600020905b8160009054906101000a900473ffffffffffffffffffffffffffffffffffffffff1673ffffffffffffffffffffffffffffffffffffffff1681526020019060010190808311610297575b5050505050915092509250509091565b6001818154811061030157600080fd5b906000526020600020016000915054906101000a900473ffffffffffffffffffffffffffffffffffffffff1681565b60008060008373ffffffffffffffffffffffffffffffffffffffff1673ffffffffffffffffffffffffffffffffffffffff168152602001908152602001600020549050919050565b60006020528060005260406000206000915090505481565b60008060008473ffffffffffffffffffffffffffffffffffffffff1673ffffffffffffffffffffffffffffffffffffffff168152602001908152602001600020540361043a576001829080600181540180825580915050600190039060005260206000200160009091909190916101000a81548173ffffffffffffffffffffffffffffffffffffffff021916908373ffffffffffffffffffffffffffffffffffffffff1602179055505b806000808473ffffffffffffffffffffffffffffffffffffffff1673ffffffffffffffffffffffffffffffffffffffff16815260200190815260200160002060008282546104889190610a4c565b925050819055508173ffffffffffffffffffffffffffffffffffffffff167f02346ddcf76c3b1b394a4bdae70f10059e1b203aa11e9c1b0313e4a94db673226000808573ffffffffffffffffffffffffffffffffffffffff1673ffffffffffffffffffffffffffffffffffffffff168152602001908152602001600020546040516105139190610964565b60405180910390a25050565b806000808473ffffffffffffffffffffffffffffffffffffffff1673ffffffffffffffffffffffffffffffffffffffff1681526020019081526020016000205410156105a0576040517f08c379a000000000000000000000000000000000000000000000000000000000815260040161059790610add565b60405180910390fd5b806000808473ffffffffffffffffffffffffffffffffffffffff1673ffffffffffffffffffffffffffffffffffffffff16815260200190815260200160002060008282546105ee9190610afd565b925050819055508173ffffffffffffffffffffffffffffffffffffffff167f02346ddcf76c3b1b394a4bdae70f10059e1b203aa11e9c1b0313e4a94db673226000808573ffffffffffffffffffffffffffffffffffffffff1673ffffffffffffffffffffffffffffffffffffffff168152602001908152602001600020546040516106799190610964565b60405180910390a25050565b600081519050919050565b600082825260208201905092915050565b6000819050602082019050919050565b600073ffffffffffffffffffffffffffffffffffffffff82169050919050565b60006106dc826106b1565b9050919050565b6106ec816106d1565b82525050565b60006106fe83836106e3565b60208301905092915050565b6000602082019050919050565b600061072282610685565b61072c8185610690565b9350610737836106a1565b8060005b8381101561076857815161074f88826106f2565b975061075a8361070a565b92505060018101905061073b565b5085935050505092915050565b600081519050919050565b600082825260208201905092915050565b6000819050602082019050919050565b6000819050919050565b6107b4816107a1565b82525050565b60006107c683836107ab565b60208301905092915050565b6000602082019050919050565b60006107ea82610775565b6107f48185610780565b93506107ff83610791565b8060005b8381101561083057815161081788826107ba565b9750610822836107d2565b925050600181019050610803565b5085935050505092915050565b600060408201905081810360008301526108578185610717565b9050818103602083015261086b81846107df565b90509392505050565b600080fd5b610882816107a1565b811461088d57600080fd5b50565b60008135905061089f81610879565b92915050565b6000602082840312156108bb576108ba610874565b5b60006108c984828501610890565b91505092915050565b6108db816106d1565b82525050565b60006020820190506108f660008301846108d2565b92915050565b610905816106d1565b811461091057600080fd5b50565b600081359050610922816108fc565b92915050565b60006020828403121561093e5761093d610874565b5b600061094c84828501610913565b91505092915050565b61095e816107a1565b82525050565b60006020820190506109796000830184610955565b92915050565b6000806040838503121561099657610995610874565b5b60006109a485828601610913565b92505060206109b585828601610890565b9150509250929050565b7f4e487b7100000000000000000000000000000000000000000000000000000000600052604160045260246000fd5b7f4e487b7100000000000000000000000000000000000000000000000000000000600052603260045260246000fd5b7f4e487b7100000000000000000000000000000000000000000000000000000000600052601160045260246000fd5b6000610a57826107a1565b9150610a62836107a1565b9250828201905080821115610a7a57610a79610a1d565b5b92915050565b600082825260208201905092915050565b7f72657075746163696f6e206465626520736572206d61796f7220646520300000600082015250565b6000610ac7601e83610a80565b9150610ad282610a91565b602082019050919050565b60006020820190508181036000830152610af681610aba565b9050919050565b6000610b08826107a1565b9150610b13836107a1565b9250828203905081811115610b2b57610b2a610a1d565b5b9291505056fea2646970667358221220bb3af9fd5c7cf7936154520aba8a43bc1cc5f3595e5a02e26a8a0d75fab8462a64736f6c63430008180033",
  "linkReferences": {},
  "deployedLinkReferences": {}
}